:100000000C946F010C9497010C9497010C94970138
:100010000C9497010C9497010C9497010C94970100
:100020000C9497010C9497010C941B0E0C94E20C09
:100030000C9497010C9497010C9497010C949701E0
:100040000C9497010C9497010C9497010C949701D0
:100050000C9497010C9497010C9497010C94A206B0
:100060000C9497010C9497010C9497010C949701B0
:100070000C9497010C9497010C9497010C949701A0
:100080000C9497010C9497010C9497010C94970190
:100090000C9442050C9497010C9497010C949701D1
:1000A0000C9497010C9497010C94970100000000A8
:1000B000240027002A002D00300000000000250049
:1000C00028002B002E003100000000002300260035
:1000D00029002C002F000404040404030405020278
:1000E00002020403020202020606060606060404D1
:1000F00002020204040802011040804010204080E7
:10010000408008020401804020100201108010206D
:1001100040400000000200080E0000030401000B34
:100120000000070605040100080A0B0C0D09080B66
:1001300000020202010009040000010202000005A1
:1001400024001001052401010104240206052406EF
:1001500000010705810310004009040100020A00A4
:10016000000007050202400000070583024000006E
:100170000403090422034100720064007500690051
:100180006E006F0020004C0065006F006E00610083
:10019000720064006F001803410072006400750073
:1001A00069006E006F0020004C004C0043001201FB
:1001B00000020000004041233680000101020001DE
:1001C00012010002020000404123368000010102BA
:1001D000000100C18081C105010902A1010901A13D
:1001E00000850105091901290315002501950375ED
:1001F0000181029501750581030501093009310965
:10020000381581257F750895038106C0C005010951
:1002100006A1018502050719E029E71500250175EA
:1002200001950881029501750881039506750815E9
:100230000025650507190029658100C00904020031
:1002400001030000000921010100012265000705EA
:10025000840340000100000000000000002A2B2859
:10026000000000000000000000000000000000008E
:1002700000000000002C9EB4A0A1A2A434A6A7A553
:10028000AE362D3738271E1F20212223242526B3E2
:1002900033B62EB7B89F8485868788898A8B8C8DE4
:1002A0008E8F909192939495969798999A9B9C9DF6
:1002B0002F3130A3AD350405060708090A0B0C0DD4
:1002C0000E0F101112131415161718191A1B1C1DD6
:1002D000AFB1B0B500003E04FD0A9B0EDD0F112446
:1002E0001FBECFEFDAE0DEBFCDBF11E0A0E0B1E08E
:1002F000E6E5F4E202C005900D92A23AB107D9F703
:1003000012E0A2EAB1E001C01D92A33EB107E1F7FD
:1003100012E0CEEDD2E004C02297FE010E94251229
:10032000C63DD107C9F70E942D080C9429120C94E0
:100330000000DC01ED91FC910190F081E02D099528
:100340000895EF92FF920F931F93CF93DF938C0149
:100350007B01C8EFD1E0CE01B8010E942804CE0194
:10036000B7010E949901CE0160E00E942B04CE01EA
:10037000B80141E050E021E030E00E941B04CE01D2
:100380000E947C03DF91CF911F910F91FF90EF901E
:100390000895CF92DF92EF92FF920F931F93CF9326
:1003A000DF937C016B018A01C8EFD1E0CE01B70178
:1003B0000E942804CE01B6010E949901CE0160E09E
:1003C0000E942B04CE01B70146E050E021E030E06E
:1003D0000E941B04CE010E947C03F82EEE24F8013B
:1003E000F182E082CE010E947C03E82AF92AF8011A
:1003F000F182E082CE010E947C03F82EEE24F80107
:10040000F382E282CE010E947C03E82AF92AF801F5
:10041000F382E282CE010E947C03F82EEE24F801E2
:10042000F582E482CE010E947C03E82AF92AF801D1
:10043000F582E482DF91CF911F910F91FF90EF90B1
:10044000DF90CF900895EF92FF920F931F93DF9369
:10045000CF930F92CDB7DEB79C018B0188EFE82ECA
:1004600081E0F82EC701B90149830E942804C70121
:10047000B8010E949901C7014981642F0E94D303EA
:10048000C70161E00E942B040F90CF91DF911F9173
:100490000F91FF90EF900895809165019091660112
:1004A0006AE670E040E00E9423028091650190912D
:1004B000660167E370E042E00E94230280916501DB
:1004C0009091660168E370E040E00E942302809111
:1004D0006501909166016CE170E040E10E942302A9
:1004E00008958FEB92E060E072EC0E94FC0A88EFC6
:1004F00091E00E94030480916501909166016BE692
:1005000070E041E00E9423020E944C0208950F9384
:100510001F93CF93DF93CFEBD2E06091A201709154
:10052000A301CE014AE050E00E943F0900E011E043
:10053000CE01B8010E947B086091A4017091A501D1
:10054000CE014AE050E00E943F09CE01B8010E946E
:100550007B086091A6017091A701CE014AE050E0AE
:100560000E943F09DF91CF911F910F9108950E9442
:1005700087020E9487020E9487028FEB92E00E940E
:1005800086080895EF92FF920F931F930E94EA0648
:100590006093AC017093AD018093AE019093AF0175
:1005A0002091A8013091A9014091AA015091AB017D
:1005B000211531054105510541F46093A80170935F
:1005C000A9018093AA019093AB012091A8013091D9
:1005D000A9014091AA015091AB01621B730B840BDE
:1005E000950B613422E472072FE0820720E0920726
:1005F00008F452C08FEB92E06EE071E00E947B083D
:100600006091B0017091B101882777FD8095982F96
:100610000E94EE1020E034E244E759E40E949E116B
:100620007B018C016091AC017091AD018091AE01B4
:100630009091AF012091A8013091A9014091AA01A8
:100640005091AB01621B730B840B950B0E94EC1055
:100650009B01AC01C801B7010E945310AB01BC0162
:100660008FEB92E022E030E00E94FF098FEB92E0F6
:100670006FE571E00E947B088FEB92E00E94860894
:100680001092A8011092A9011092AA011092AB0138
:100690001092B1011092B0011F910F91FF90EF9055
:1006A00008950E94C20280916501909166016AE3FB
:1006B00070E00E94A10180FF13C0809165019091BC
:1006C00066016BE370E042EA51E00E94C90180914B
:1006D000B0019091B10101969093B1018093B00166
:1006E0000E94B70208952091D30130E08091D20199
:1006F000281B3109C90108958091D2019091D3013D
:10070000891750F4E82FF0E0EE54FE4F208130E0DE
:100710008F5F8093D20102C02FEF3FEFC901089590
:10072000E091D2018091D301E81730F4F0E0EE546B
:10073000FE4F208130E002C02FEF3FEFC901089546
:100740000895CF92DF92EF92FF920F931F93CF9372
:10075000DF936C01CB01EA012091F7012223B1F074
:10076000E62EF92E00E010E00DC0D7016D917D015D
:10077000D601ED91FC910190F081E02DC601099523
:100780000F5F1F4F0C171D0780F303C0642F0E94DB
:100790001005CE01DF91CF911F910F91FF90EF9047
:1007A000DF90CF900895DF93CF930F92CDB7DEB750
:1007B00069832091F7012223D1F02091F6012032A4
:1007C00040F021E030E0FC013383228320E030E080
:1007D00015C08091F501E82FF0E0EB52FE4F9981B2
:1007E00090838F5F8093F5018093F60105C0CE0161
:1007F000019661E00E94100521E030E0C9010F90F0
:10080000CF91DF9108951092D2011092D3011092EE
:10081000F5011092F6010E9455040895862F413289
:1008200008F040E262EB71E00E9473041092D20182
:100830008093D30108950E940E04089581E080936F
:10084000F7016093D4011092F5011092F60108951A
:100850000E941E0408950F93062F8091D40165ED28
:1008600071E04091F60121E00E94BC041092F50174
:100870001092F6011092F7010F9108951092FB016A
:100880001092FA0188EE93E0A0E0B0E08093FC01C2
:100890009093FD01A093FE01B093FF0185E791E0E5
:1008A0009093F9018093F80108951092290281E054
:1008B000809327021092280282E061E00E94F507EF
:1008C00083E061E00E94F507E9EBF0E080818E7F34
:1008D000808380818D7F808388E48093B80085E465
:1008E0008093BC000895413208F043C090912902E2
:1008F0009923E1F791E090932902209327022FEFAB
:1009000020932A0210920502242F215020930602E0
:100910009093040290910402880F892B8093040223
:1009200080912802813041F41092280280910402C3
:100930008093BB0085EC01C085EE8093BC00809164
:1009400029028130E1F380910502841710F440916F
:100950000502E7E0F2E0262F372FD901242F30E0FF
:100960002E0F3F1F02C081918D93E217F307D9F735
:1009700001C040E0842F08950F93413208F047C032
:10098000909129029923E1F792E090932902009334
:1009900027029FEF90932A021092050240930602CD
:1009A000DB01E7E0F2E050E04E0F5F1F02C09D91D7
:1009B0009193E417F507D9F710920402909104027D
:1009C000880F892B8093040280912802813041F4A2
:1009D00010922802809104028093BB0085EC01C034
:1009E00085EE8093BC00222321F080912902823081
:1009F000E1F380912A028F3F61F080912A028032D8
:100A000051F080912A02803341F483E007C081E0F5
:100A100005C080E003C082E001C084E00F9108952A
:100A20006132A0F420912902243091F460934F02A6
:100A3000DC01E2E5F2E070E06E0F7F1F02C08D91F5
:100A40008193E617F707D9F780E0089581E00895CC
:100A500082E00895882311F085EC01C085E8809339
:100A6000BC00089585ED8093BC008091BC0084FD9E
:100A7000FCCF10922902089585EC8093BC0010925F
:100A8000290208951F920F920FB60F9211242F93EF
:100A90003F934F935F936F937F938F939F93AF9306
:100AA000BF93EF93FF938091B90090E0887F90709F
:100AB0008036910509F4CCC081369105E4F5883281
:100AC000910509F47EC089329105C4F48031910505
:100AD00009F472C08131910544F4009709F41DC1F5
:100AE0008830910509F01DC167C08831910509F46E
:100AF00068C08032910509F014C177C08034910537
:100B000009F489C0813491054CF48033910509F4CE
:100B10006EC08833910509F004C16DC08035910520
:100B200009F46DC08835910509F47AC088349105BF
:100B300009F0F7C0F4C08839910509F4E4C0893997
:100B40009105ECF48837910509F482C08937910545
:100B50004CF48836910509F47BC08037910509F083
:100B6000E0C076C08838910509F4CDC08039910580
:100B700009F474C08038910509F0D3C06FC0803B80
:100B8000910509F498C0813B91054CF4803A910598
:100B900009F476C0883A910509F0C3C08CC0803C46
:100BA000910509F4B4C0883C910509F4B0C0883BB4
:100BB000910509F0B6C094C0809104028093BB00F7
:100BC00012C090910502809106029817A8F58091B5
:100BD0000502E82FF0E0E95FFD4F90819093BB00A4
:100BE0008F5F8093050281E08FC080E201C080E3C7
:100BF00080932A0294C088E380932A0259C080918E
:100C000005029091BB00E82FF0E0E95FFD4F908373
:100C10008F5F80930502909105028091060270C05B
:100C2000809105029091BB00E82FF0E0E95FFD4F55
:100C300090838F5F8093050280912702882309F0BB
:100C40006EC081E08093280284EA8093BC0062C079
:100C500083E08093290210922B02C5CF80912B0252
:100C6000803208F050C080912B029091BB00E82F99
:100C7000F0E0E45DFD4F90838F5F80932B02B3CF54
:100C800080912B02803230F4E0912B02F0E0E45DA1
:100C9000FD4F10820E94320560912B02E0914C02C0
:100CA000F0914D028CE292E070E0099510922B02D7
:100CB0000E943C0536C084E08093290210924E02C7
:100CC00010924F02E0915002F091510209958091EB
:100CD0004F02882329F481E080934F021092520240
:100CE00080914E02E82FF0E0EE5AFD4F90819093F4
:100CF000BB008F5F80934E0290914E0280914F0215
:100D0000981708F470CF80E00E942A050AC081E09D
:100D10000E942A051092290204C010922A020E9401
:100D20003205FF91EF91BF91AF919F918F917F918C
:100D30006F915F914F913F912F910F900FBE0F9048
:100D40001F9018951F920F920FB60F9211242F9398
:100D50003F938F939F93AF93BF938091760290912F
:100D60007702A0917802B091790230917A020196CF
:100D7000A11DB11D232F2D5F2D3720F02D5701967A
:100D8000A11DB11D20937A02809376029093770281
:100D9000A0937802B09379028091720290917302CD
:100DA000A0917402B09175020196A11DB11D8093AE
:100DB000720290937302A0937402B0937502BF9174
:100DC000AF919F918F913F912F910F900FBE0F90F8
:100DD0001F9018959FB7F89420917202309173027A
:100DE000409174025091750286B5A89B06C08F3F52
:100DF00021F02F5F3F4F4F4F5F4F9FBF542F432F27
:100E0000322F2227280F311D411D511D82E0220F54
:100E1000331F441F551F8A95D1F7B901CA010895A0
:100E2000EF92FF920F931F93CF93DF937B018C017F
:100E30000E94EA06EB010FC00E94EA066C1B7D0BC4
:100E400083E0683E780738F00894E108F10801096A
:100E50001109C851DC4FE114F1040105110561F7D6
:100E6000DF91CF911F910F91FF90EF9008957894AB
:100E700084B5826084BD84B5816084BD85B582609F
:100E800085BD85B5816085BDEEE6F0E0808181603D
:100E90008083E1E8F0E0108280818260808380813D
:100EA00081608083E0E8F0E0808181608083E1EB15
:100EB000F0E0808184608083E0EBF0E080818160FD
:100EC0008083E1E9F0E080818260808380818160BD
:100ED0008083E0E9F0E0808181608083E1ECF0E0F4
:100EE0008081846080838081826080838081816052
:100EF0008083E3ECF0E0808181608083E0ECF0E0CF
:100F0000808182608083E2ECF0E080818160808378
:100F1000EAE7F0E080818460808380818260808362
:100F2000808181608083808180688083089587309C
:100F3000C1F1883080F48330F9F0843030F48130AE
:100F400029F1823009F050C024C08430C9F08630C5
:100F500009F04AC022C08A3091F18B3030F48830D9
:100F600031F1893009F040C026C08C3091F18C30CD
:100F700060F18E30C9F533C0809180008F7703C057
:100F8000809180008F7D80938000089584B58F7755
:100F900002C084B58F7D84BD08958091B0008F77A5
:100FA00003C08091B0008F7D8093B0000895809140
:100FB00090008F7707C0809190008F7D03C0809153
:100FC0009000877F8093900008958091C0008F7774
:100FD00003C08091C0008F7D8093C00008958091F0
:100FE000C200877F8093C20008950F931F93DF9301
:100FF000CF930F92CDB7DEB7282F30E0F901EE5E28
:10100000FE4F8491F901EC50FF4F14912A523F4F4B
:10101000F90104910023D9F0882321F069830E940B
:1010200097076981E02FF0E0EE0FFF1FE654FF4FB6
:1010300085919491DC019FB7F894662321F48C91FB
:101040001095812302C08C91812B8C939FBF0F90B0
:10105000CF91DF911F910F910895CF93DF930E945D
:10106000370785ED92E00E947D0E0E947102C0E07C
:10107000D0E00E9451032097E1F30E940000F9CFD5
:10108000CF92DF92EF92FF920F931F93CF93DF9354
:101090006C017B018A01C0E0D0E00FC0D7016D91E7
:1010A0007D01D601ED91FC910190F081E02DC6010A
:1010B0000995C80FD91F015010400115110571F78E
:1010C000CE01DF91CF911F910F91FF90EF90DF90B4
:1010D000CF900895DB010D900020E9F7AD0141505C
:1010E0005040461B570BDC01ED91FC910280F381CF
:1010F000E02D099508950E946A080895DC01ED919C
:10110000FC910190F081E02D099508950F931F93B4
:10111000CF93DF93EC016DE00E947E088C01CE013D
:101120006AE00E947E08080F191FC801DF91CF9165
:101130001F910F9108958F929F92AF92BF92CF927D
:10114000DF92EF92FF920F931F93DF93CF93CDB770
:10115000DEB7A1970FB6F894DEBF0FBECDBF6C010E
:10116000042FE52FCB01122F19A2223008F41AE028
:1011700021E2E22EF12CEC0EFD1E812E9924AA24F0
:10118000BB2403C0022FE32FCA01602F7E2FA501CD
:1011900094010E940112129F802D1124081B0894B3
:1011A000E108F1080A3014F4005D01C0095CF701A0
:1011B0000083211531054105510521F7C601B7010D
:1011C0000E946A08A1960FB6F894DEBF0FBECDBF8D
:1011D000CF91DF911F910F91FF90EF90DF90CF9013
:1011E000BF90AF909F908F9008952115310549F4DD
:1011F000DC01ED91FC910190F081E02D642F0995C7
:1012000008950E949B080895CF92DF92EF92FF927B
:101210000F931F93CF93DF93EC017A018B0121157C
:10122000310541F4E881F9810190F081E02D642FCE
:1012300009951AC02A303105A9F477FF12C06DE272
:101240000E947E086C0144275527BA014E195F0998
:10125000600B710BCE012AE00E949B08C80ED91EBC
:1012600004C02AE00E949B086C01C601DF91CF9167
:101270001F910F91FF90EF90DF90CF9008959A010A
:10128000FB01AF01662757FD6095762F0E94040988
:1012900008956F927F929F92AF92BF92CF92DF920A
:1012A000EF92FF920F931F93CF93DF933C017A014C
:1012B0008B01C22ECB01BA0120E030E0A9010E94CF
:1012C0004F1087FF0AC0C3016DE20E947E08EC0147
:1012D00017FB109517F9109502C0C0E0D0E0DD248F
:1012E00050E040E030E02FE311C0DA01F9016B2F4C
:1012F000742F8F2F922F20E030E040E251E40E94C3
:101300005310562F472F382F292FD394DC1468F30E
:10131000C801B701DA01F9012B2F342F4F2F5E2FAF
:101320000E94EB0F5B01F82E992E7B2D0E94C010BE
:10133000162FD72EE82E092F0E94EC109B01AC012E
:101340006A2D7B2D8F2D992D0E94EA0F962EA72EA8
:10135000B82EF92EC301412F5D2D6E2D702F2AE07E
:1013600030E00E94F508C80FD91FCC20B9F1C301A5
:1013700063E671E00E946A08C80FD91F2FC0692D6B
:101380007A2D8B2D9F2D20E030E040E251E40E9429
:101390009E11D62EB72EA82E992E0E94BB107B012F
:1013A0000027F7FC0095102FC301B801A7012AE020
:1013B00030E00E940409C80FD91FC801B7010E947C
:1013C000EE109B01AC016D2D7B2D8A2D992D0E9475
:1013D000EA0F962EA72EB82EF92ECA94CC2079F6B5
:1013E000CE01DF91CF911F910F91FF90EF90DF9091
:1013F000CF90BF90AF909F907F906F9008950E9484
:10140000490908952091BB023091BC028091BD0230
:101410009091BE02281B390B2F733070C9010895BB
:101420002091BB023091BC028091BD029091BE021E
:101430002817390749F0E091BD02F091BE02E55846
:10144000FD4F208130E002C02FEF3FEFC90108952A
:101450002091BB023091BC028091BD029091BE02EE
:1014600028173907A1F0E091BD02F091BE02E558BE
:10147000FD4F20818091BD029091BE0201968F7335
:1014800090709093BE028093BD0230E002C02FEFB7
:101490003FEFC90108950F931F93DF93CF930F92EE
:1014A000CDB7DEB78C01698380916E01882369F026
:1014B00083E0BE016F5F7F4F41E050E00E94BB0BB5
:1014C0001816190614F49C0107C081E090E0F80199
:1014D0009383828320E030E0C9010F90CF91DF91A8
:1014E0001F910F91089583E00E94110E089582E0EC
:1014F0000E94880B2091BB023091BC022F5F3F4FAE
:101500002F7330704091BD025091BE0224173507F1
:1015100059F0E091BB02F091BC02E558FD4F808389
:101520003093BC022093BB020895FC0180818E5F42
:10153000808380E86EE271E042E450E00E94690C32
:101540000895FC0181819081913A59F4813209F02A
:101550004FC080E067E671E047E050E00E94690C10
:1015600045C0913209F044C0803239F487E691E0F9
:1015700067E070E00E94AF0C39C0823209F038C0D9
:10158000828180936E018091670190916801A091A2
:101590006901B0916A01803B24E0920720E0A20734
:1015A00020E0B20739F580916E0180FD12C087E717
:1015B00097E790930108809300082BE088E190E082
:1015C0000FB6F894A895809360000FBE209360003A
:1015D0000DC088E10FB6F89480936000109260000F
:1015E0000FBEA895109201081092000881E008959E
:1015F00080E0089581E0089508951092C20210924B
:10160000C10288EE93E0A0E0B0E08093C302909323
:10161000C402A093C502B093C60285E891E09093FE
:10162000C0028093BF0208958091E80080FFFCCF44
:101630000895FC0104C08091F100819361506623FC
:10164000D1F7289884E68093CE0208952FB7FC0145
:101650002083F89467706093E9000895DF93CF9337
:101660000F92CDB7DEB7682FCE0101960E94260BF0
:101670008091F20099819FBF0F90CF91DF910895E3
:10168000FF920F931F93DF93CF9300D0CDB7DEB7B8
:10169000282FF62E8A018091CF028823C9F057FFA8
:1016A00022C016C028982093CE023091F1003193C9
:1016B000E817F907B9F70115110539F08091F20023
:1016C000882319F48BE68093E80089818FBF02C0DC
:1016D0000FEF1FEFC8010F900F90CF91DF911F9177
:1016E0000F91FF900895CE010196622F7A830E9498
:1016F000260B8091F20090E07A81801791070CF41C
:101700008C01EF2DF72FCF01800F911D24E6D0CF54
:10171000DF93CF930F92CDB7DEB7BE016F5F7F4FE0
:1017200041E050E00E94400B8130910519F429817D
:1017300030E002C02FEF3FEFC9010F90CF91DF9152
:101740000895DF93CF930F92CDB7DEB7682FCE0108
:1017500001960E94260B8091E80085FF05C09091BC
:10176000F20080E4891B01C080E099819FBF0F9047
:10177000CF91DF9108952F923F924F925F926F9297
:101780007F928F929F92AF92BF92CF92DF92EF9211
:10179000FF920F931F93DF93CF930F92CDB7DEB7D6
:1017A000D82EC42EA52E8091CF02882309F46FC0B5
:1017B000062F172FE42EF52E2AEFB22E3E010894A5
:1017C000611C711C2D2C332490E2492E512C422097
:1017D00053208AE3882E80E4282233244DC08D2DA7
:1017E0000E94A10B982E882351F4BA9409F44FC09B
:1017F00061E070E080E090E00E9410073DC090E062
:10180000E816F9060CF49E2CE918F108C3016D2DB9
:101810000E94260B4114510439F003C01092F100CC
:101820009A949920D9F71AC0D7FC03C0892DF801E2
:1018300011C0892D980107C0F9012F5F3F4FE49136
:10184000E093F10081508823B9F706C091919093FD
:10185000F10081508823D1F7090D111D8091E80016
:1018600085FF06C0E114F10429F42114310411F0BC
:101870008092E80089818FBFE114F10409F0AFCFB5
:101880005D9884E68093CD022C2D3A2D02C02FEF77
:101890003FEFC9010F90CF91DF911F910F91FF9002
:1018A000EF90DF90CF90BF90AF909F908F907F9000
:1018B0006F905F904F903F902F9008951092E900A5
:1018C0001092D1021092D0029093D3028093D20250
:1018D00008951F93242F352FE62FF72F9EEF34C046
:1018E00087FF02C0149101C01081A091D002B09175
:1018F000D1026091D2027091D302A617B707BCF44F
:101900006091E8006570E1F36091E80062FD22C03B
:101910001093F1006091D0027091D1026F5F7F4F00
:101920006F7370706115710511F49093E800609108
:10193000D0027091D1026F5F7F4F7093D10260939C
:10194000D0022150304031962115310549F6242F1F
:10195000352F02C02FEF3FEFC9011F9108951F934C
:10196000DF93CF930F92CDB7DEB7162F2091E8000B
:1019700022FFFCCF612F79830E94190B8BEF80939C
:10198000E800812F7981972F0F90CF91DF911F91E0
:1019900008950F931F93DF93CF930F92CDB7DEB7C8
:1019A00019828E010F5F1F4FC8010E94950AC8015E
:1019B0000E94B80E898190E00F90CF91DF911F9126
:1019C0000F9108951F920F920FB60F921124EF926C
:1019D000FF920F931F932F933F934F935F936F93B8
:1019E0007F938F939F93AF93BF93EF93FF93DF9377
:1019F000CF93CDB7DEB76297DEBFCDBF1092E900BF
:101A00008091E80083FFF3C0CE01019668E00E9458
:101A1000190B82EF8093E800098107FF03C00E9441
:101A2000140B03C08EEF8093E800802F90E09C01A0
:101A3000207630702115310509F0BEC02A8122239D
:101A400029F41092F1001092F100CAC0213009F47B
:101A5000C7C0233009F4C4C0253039F40E94140BE8
:101A60008B8180688093E300BBC0263009F076C08C
:101A70002C810F811885223081F580E090E02A8B3F
:101A80000E945E0C0E94C90C99E039E0E32EF12C13
:101A9000EC0EFD1EF701392F11923A95E9F799875F
:101AA0002A892A8791E09E8790E8988B9AEF998BF4
:101AB0002091D0023091D102275F3F4F3C872B8786
:101AC0008D87C8010E945E0C80E0B70149E050E0BC
:101AD0000E94690C0E94C90C83C0C8012A8B0E9415
:101AE0005E0C2A89223241F482E290E00E94C40E08
:101AF000009709F075C078C0213079F48F819885FE
:101B00008830910519F481E08093D4028091D40249
:101B10008823B9F060EC71E016C0233009F064C08E
:101B20008B81882319F460E771E00DC0823019F4CD
:101B300064E771E008C0813009F056C066E971E0E1
:101B400002C06EEA71E06115710509F44DC0FB0138
:101B5000449180E850E00E94690C42C0273009F4AB
:101B600043C0283021F481E08093F10039C029304E
:101B7000B9F5837090700097B9F580E090E031E09E
:101B800026E3482F4F5F4093E9003093EB00019626
:101B9000FC01EE52FE4FE491E093EC002093ED0047
:101BA0008430910571F78EE78093EA001092EA0085
:101BB0008B818093CF0214C08F8198850E945E0C28
:101BC0008D81882329F4CE0101960E94A10A06C0C6
:101BD000823051F4CE0101960E94ED0E882321F04F
:101BE0008EEF8093E80003C081E28093EB00629661
:101BF000DEBFCDBFCF91DF91FF91EF91BF91AF914C
:101C00009F918F917F916F915F914F913F912F9114
:101C10001F910F91FF90EF900F900FBE0F901F90AC
:101C200018958093E9008091F200882319F08AE3E7
:101C30008093E80008951F920F920FB60F9211241F
:101C40002F933F934F935F936F937F938F939F93C4
:101C5000AF93BF93EF93FF938091E1001092E10067
:101C600083FF0FC01092E90091E09093EB00109277
:101C7000EC0092E39093ED001092CF0298E09093E5
:101C8000F00082FF29C083E00E94110E04C08FEB98
:101C900092E00E94770A82E00E942E0B8823B9F717
:101CA0008091CD02882351F08091CD0281508093A4
:101CB000CD028091CD02882309F45D9A8091CE02F5
:101CC000882351F08091CE0281508093CE02809182
:101CD000CE02882309F4289AFF91EF91BF91AF912A
:101CE0009F918F917F916F915F914F913F912F9134
:101CF0000F900FBE0F901F9018951092CF0281E0A9
:101D00008093D70080EA8093D80082E189BD89B5AD
:101D100080FFFDCF61E070E080E090E00E9410075E
:101D200080E98093D8008CE08093E2001092E0007C
:101D3000559A209A089508950F931F93CF93DF9398
:101D4000EC01162FE881F9810480F581E02D0995D9
:101D5000082FE881F9810680F781E02DCE01612FFF
:101D60000995802F90E0DF91CF911F910F910895F9
:101D7000FC0180818F5F808380E86CE372E049E141
:101D800050E00E94690C089580E867ED71E045E637
:101D900050E00E94690C0895EF92FF920F931F93F9
:101DA000DF93CF930F92CDB7DEB789838B017A0192
:101DB00084E0BE016F5F7F4F41E050E00E94BB0BAB
:101DC00084E4B801A7010E94BB0B0F90CF91DF9173
:101DD0001F910F91FF90EF900895FC0191818081F8
:101DE000813A31F4913089F081E0933081F412C06E
:101DF000813269F49B3021F4828180936F0105C0A8
:101E00009A3039F482818093700181E0089580E0F6
:101E1000089580E0089582E048E050E00E94CC0EF2
:101E20000895FC0116821782108611861286138689
:101E30001482BC016C5F7F4F0E940B0F0895CF93FB
:101E4000DF93DC01683818F0E62FE85826C0E62F4B
:101E5000F0E067FF13C0E058F04081E090E002C07E
:101E6000880F991FEA95E2F7809514969C91149734
:101E7000982314969C931497E0E00FC0EB5AFD4F03
:101E8000E491EE23F9F0E7FF08C014968C911497C3
:101E90008D7F14968C931497EF77ED0186E0EE23F7
:101EA00021F09E819E1709F41E828150219688237D
:101EB000B1F7BD016C5F7F4FCD010E940B0F21E098
:101EC00030E002C020E030E0C901DF91CF910895F9
:101ED000CF93DF93DC01683818F0E62FE85825C06F
:101EE000E62FF0E067FF12C0E058F04081E090E09C
:101EF00002C0880F991FEA95E2F714962C91149767
:101F0000282B14962C931497E0E00FC0EB5AFD4F4A
:101F1000E491EE23E9F1E7FF08C014968C91149741
:101F2000826014968C931497EF7716968C9116977F
:101F30008E17B9F117968C9117978E1791F1189605
:101F40008C9118978E1769F119968C9119978E17A5
:101F500041F11A968C911A978E1719F11B968C9154
:101F60001B978E17F1F0ED01269680E090E0482F48
:101F70009C0159910196552329F4ED01C20FD31FFD
:101F8000EE8304C0482F8630910589F7463049F426
:101F900081E090E013969C938E93129720E030E0BE
:101FA00008C0BD016C5F7F4FCD010E940B0F21E087
:101FB00030E0C901DF91CF9108951092D6021092BE
:101FC000DA021092D90287E991E09093D8028093C7
:101FD000D70208955058BB27AA270ED075C166D1E5
:101FE00030F06BD120F031F49F3F11F41EF45BC14F
:101FF0000EF4E095E7FB51C1E92F77D180F3BA17D2
:10200000620773078407950718F071F49EF58FC176
:102010000EF4E0950B2EBA2FA02D0B01B901900103
:102020000C01CA01A0011124FF27591B99F0593F47
:1020300050F4503E68F11A16F040A22F232F342F8F
:102040004427585FF3CF469537952795A795F040DD
:102050005395C9F77EF41F16BA0B620B730B840BF2
:10206000BAF09150A1F0FF0FBB1F661F771F881FAA
:10207000C2F70EC0BA0F621F731F841F48F4879502
:1020800077956795B795F7959E3F08F0B3CF9395F1
:10209000880F08F09927EE0F979587950895D9D066
:1020A00008F481E008950CD00FC107D140F0FED0B4
:1020B00030F021F45F3F19F0F0C0511139C1F3C085
:1020C00014D198F39923C9F35523B1F3951B550BFC
:1020D000BB27AA2762177307840738F09F5F5F4FFB
:1020E000220F331F441FAA1FA9F333D00E2E3AF03C
:1020F000E0E830D091505040E695001CCAF729D056
:10210000FE2F27D0660F771F881FBB1F26173707A4
:102110004807AB07B0E809F0BB0B802DBF01FF27D4
:1021200093585F4F2AF09E3F510568F0B6C000C13A
:102130005F3FECF3983EDCF3869577956795B7950E
:10214000F7959F5FC9F7880F911D9695879597F929
:102150000895E1E0660F771F881FBB1F62177307A2
:102160008407BA0720F0621B730B840BBA0BEE1FB7
:1021700088F7E095089504D06894B111D9C0089506
:10218000BCD088F09F5790F0B92F9927B751A0F095
:10219000D1F0660F771F881F991F1AF0BA95C9F7FB
:1021A00012C0B13081F0C3D0B1E00895C0C0672F34
:1021B000782F8827B85F39F0B93FCCF386957795AB
:1021C0006795B395D9F73EF4909580957095619594
:1021D0007F4F8F4F9F4F0895E89409C097FB3EF4BF
:1021E00090958095709561957F4F8F4F9F4F992364
:1021F000A9F0F92F96E9BB279395F69587957795E2
:102200006795B795F111F8CFFAF4BB0F11F460FFA1
:102210001BC06F5F7F4F8F4F9F4F16C0882311F0F9
:1022200096E911C0772321F09EE8872F762F05C00D
:10223000662371F096E8862F70E060E02AF09A95A8
:10224000660F771F881FDAF7880F9695879597F99D
:102250000895990F0008550FAA0BE0E8FEEF161637
:102260001706E807F907C0F012161306E407F5078A
:1022700098F0621B730B840B950B39F40A2661F0FE
:10228000232B242B252B21F408950A2609F4A140A1
:10229000A6958FEF811D811D089597F99F6780E8AE
:1022A00070E060E008959FEF80EC089500240A94A8
:1022B0001616170618060906089500240A94121621
:1022C0001306140605060895092E0394000C11F454
:1022D000882352F0BB0F40F4BF2B11F460FF04C001
:1022E0006F5F7F4F8F4F9F4F089557FD9058440F5A
:1022F000551F59F05F3F71F04795880F97FB991F65
:1023000061F09F3F79F08795089512161306140621
:10231000551FF2CF4695F1DF08C0161617061806AE
:10232000991FF1CF86957105610508940895E89489
:10233000BB2766277727CB0197F908950BD0C4CF29
:10234000B5DF28F0BADF18F0952309F0A6CFABCFA0
:102350001124EECFCADFA0F3959FD1F3950F50E083
:10236000551F629FF001729FBB27F00DB11D639F47
:10237000AA27F00DB11DAA1F649F6627B00DA11DED
:10238000661F829F2227B00DA11D621F739FB00D93
:10239000A11D621F839FA00D611D221F749F332703
:1023A000A00D611D231F849F600D211D822F762F9C
:1023B0006A2F11249F5750408AF0E1F088234AF099
:1023C000EE0FFF1FBB1F661F771F881F91505040E5
:1023D000A9F79E3F510570F060CFAACF5F3FECF3A5
:1023E000983EDCF3869577956795B795F795E795D1
:1023F0009F5FC1F7FE2B880F911D9695879597F9E2
:102400000895A1E21A2EAA1BBB1BFD010DC0AA1F35
:10241000BB1FEE1FFF1FA217B307E407F50720F04D
:10242000A21BB30BE40BF50B661F771F881F991FC8
:102430001A9469F760957095809590959B01AC0111
:10244000BD01CF010895EE0FFF1F0590F491E02D1F
:062450000994F894FFCF8F
:10245600200020202020204759524F3A20002020DB
:102466002020202020202020202020202020202066
:102476002020202020202020202020202020202056
:102486002020202020202020202020202020202046
:102496002020202020202020202020202020202036
:1024A6002020202020202020202020202020002046
:1024B600487A002E00680000E100000000000001DC
:1024C6000100000000D303A10373037C039003A063
:1024D60003000000004B0A4008020A280A100A738B
:1024E6000A770A000000009C0E4008680F1F0F11B3
:0224F6000F00D5
:00000001FF
